:100000000C9438000C9455000C9455000C94550039
:100010000C9455000C9455000C9455000C9455000C
:100020000C9455000C9455000C9455000C945500FC
:100030000C9455000C9455000C9455000C945500EC
:100040000C9455000C9455000C9455000C945500DC
:100050000C9455000C9455000C9455000C945500CC
:100060000C9455000C9455000C9455000C945500BC
:1000700011241FBECFEFD4E0DEBFCDBF11E0A0E062
:10008000B1E0E0EBF4E002C005900D92A431B107BD
:10009000D9F721E0A4E1B1E001C01D92AE31B20771
:1000A000E1F70E9457000C9456020C9400008FE177
:1000B00090E00E94830067E770E088E690E00E948D
:1000C000960086E091E00E94E00080E090E00895D4
:1000D000CF93C82F8A3039F05D9BFECFCCB980E03A
:1000E00090E0CF9108958DE00E946800F5CF5F9B6E
:1000F000FECF8CB190E0089567E770E088E690E06D
:100100000E949600089590BD89B988E18AB98EE869
:1001100080BD0E947C0008958FEF84BB15BA88E1F2
:1001200080BF10BE85E58093012008950F931F9333
:10013000CF93DF93EC018B01892B51F4672B41F4B2
:10014000E0E0F0E0CF01DF91CF911F910F91089592
:100150006EE070E081E090E00E940C01FC01892BD0
:1001600079F380E883830115110571F01387028705
:1001700081E883838091140190911501892B21F4EA
:10018000F0931501E09314012097E1F2D187C08725
:100190008381826083838091160190911701892B5E
:1001A00089F6F0931701E093160180911801909160
:1001B0001901892B39F6F0931901E0931801C2CF88
:1001C0000F931F93CF93DF93E0911601F0911701E6
:1001D000238100E010E021FD0EC00FEF1FEFC801EA
:1001E000DF91CF911F910F9108950995892B11F0FF
:1001F0000FEF1FEFCE01EC01899160911601709114
:100200001701DB011896ED91FC918111EECF8AE088
:100210000995892B21F3E1CF0F931F93CF93DF93A0
:10022000869F8001879F100D969F100D1124C80195
:100230000E942801EC01009729F0A80160E070E01D
:100240000E944F02CE01DF91CF911F910F9108952F
:100250000F931F93CF93DF939C01029710F422E03A
:1002600030E0E0911A01F0911B0180E090E0A0E005
:10027000B0E0309791F4009709F448C0821B930BCB
:1002800084309105D0F58A819B816115710581F1DA
:10029000FB0193838283FE0111C040815181028161
:1002A000138142175307D8F04217530799F4109758
:1002B00061F012960C93129713961C933296CF010D
:1002C000DF91CF911F910F91089500931A01109320
:1002D0001B01F4CF009751F04817590738F0AC01D3
:1002E000DB01CA01BD01DF01F801C3CFEF01F9CF86
:1002F00090931B0180931A01CECFFE01E80FF91FE6
:1003000021933193029799838883D9CF40911C011F
:1003100050911D014115510541F440910201509148
:10032000030150931D0140931C01809100019091A5
:100330000101009741F48DB79EB76091040170915F
:100340000501861B970B4817590708F0B8CF841B87
:10035000950B8217930708F4B2CFB9016E5F7F4FF8
:100360008617970708F4ABCF640F751F70931D01B4
:1003700060931C01FA0121933193A1CFCF93DF93B6
:100380009C010097E9F0FC01329713821282C09120
:100390001A01D0911B01DE0180E090E02097A1F4CA
:1003A00080819181280F391F80911C0190911D013E
:1003B0008217930709F068C0F0931D01E0931C01B8
:1003C000DF91CF910895DA01AE17BF0708F042C060
:1003D00012964D915C911397CD014115510599F7F6
:1003E000DC011396FC93EE9312974D915D919D0164
:1003F000240F351FE217F30781F4208131812E5F2E
:100400003F4F240F351FDC0111963C932E93228120
:10041000338113963C932E931297E0E0F0E08A81AB
:100420009B810097B1F5DE018D919D918A0F9B1FF5
:1004300020911C0130911D012817390709F63097CA
:1004400059F510921B0110921A01D0931D01C0930F
:100450001C01B6CFB383A28340815181240F351F85
:10046000A217B30771F44E5F5F4F2D913C91119726
:10047000240F351F3183208312962D913C913383B5
:100480002283009709F0ACCFF0931B01E0931A018F
:1004900097CFFE01EC01C3CF13821282D6CFDC01CD
:1004A00001C06D9341505040E0F70895F894FFCF9C
:1004B00000001E01200048656C6C6F20576F726C45
:0404C00064210000B3
:00000001FF
