:100000000C9438000C9455000C9455000C94550039
:100010000C9455000C9455000C9455000C9455000C
:100020000C9455000C9455000C9455000C945500FC
:100030000C9455000C9455000C9455000C945500EC
:100040000C9455000C9455000C9455000C945500DC
:100050000C9455000C9455000C9455000C945500CC
:100060000C9455000C9455000C9455000C945500BC
:1000700011241FBECFEFD4E0DEBFCDBF12E0A0E061
:10008000B1E0E6EAFFE002C005900D92A434B107AA
:10009000D9F722E0A4E4B2E001C01D92AE34B20769
:1000A000E1F70E94E7000C94D1070C940000CF9276
:1000B000DF92EF92FF920F931F93CF93DF938AE02B
:1000C00091E00E9441030E94CA02C82ED92E0E94CC
:1000D000CF0200E010E0C0E0D0E00F2EF0E2EF2E03
:1000E000F1E0FF2EF02D06C00F5F1F4F011598E0C5
:1000F0001907F9F00E94CA02282F392FF801F85E7B
:1001000080834081481781F333273F932F931F92B9
:100110004F931F930F93FF92EF920E942403219617
:100120008DB79EB708960FB6F8949EBF0FBE8DBFD1
:10013000DBCF8C2D9D2D0E94CF02C12CD12C00E055
:1001400010E00F2EF9E5EF2EF1E0FF2EF02D07C0A5
:100150009FEFC91AD90AC11488E0D806F9F00E94A5
:10016000CA02282F392FF601F85E8081821781F3A9
:1001700033273F932F931F928F93DF92CF92FF925B
:10018000EF920E9424030F5F1F4F8DB79EB7089612
:100190000FB6F8949EBF0FBE8DBFDACF1F930F939B
:1001A000DF93CF9386E991E09F938F930E9424037E
:1001B0000F900F900F900F900F900F90DF91CF91B5
:1001C0001F910F91FF90EF90DF90CF9008958FE1F6
:1001D00090E00E946A010E9473010E9495016EE501
:1001E00071E08FE491E00E94DA028FEE91E00E94CC
:1001F00041030F2EFCEFAF2EF1E0BF2EF02D0F2E9E
:10020000FAE0CF2EF2E0DF2EF02D0F2EF8E1EF2EE8
:10021000F2E0FF2EF02D06E212E0C4E3D2E00E94ED
:100220009E010E94CA017F936F93BF92AF920E947A
:1002300024030E94CA019F938F93DF92CF920E9462
:1002400024030E9410027F936F93FF92EF920E940B
:1002500024030E9410029F938F931F930F930E9479
:1002600024030E944B029F938F93DF93CF930E94AE
:1002700024038AE090E00E943A039FEF2FEF8DE184
:10028000915020408040E1F700C000008DB79EB73C
:1002900044960FB6F8949EBF0FBE8DBFC0CFCF93CC
:1002A000C82F8A3039F05D9BFECFCCB980E090E05A
:1002B000CF9108958DE00E944F01F5CF5F9BFECF57
:1002C0008CB190E008956EE571E08FE491E00E94BA
:1002D000DA02089590BD89B988E18AB98EE880BDB7
:1002E0000E946301089585B7806885BF80B78062EA
:1002F00080BF08958FEF84BB15BA88E180BF10BE20
:1003000085E58093011808952FEF24BB15BA28E1E5
:1003100020BFFC01608310BE08958D9A80E48FBDDC
:1003200089E08EBD1BBC1ABC089585B7806885BF67
:1003300080B7806280BF0E948D010895CF93DF93C4
:10034000CDB7DEB728970FB6F894DEBF0FBECDBF8E
:10035000E0E0F0E1108281E28A95F1F7408160816E
:100360008081E08150E0242F352F70E0462F572FF9
:1003700090E0682F792FF0E08E2F9F2F28960FB6F0
:10038000F894DEBF0FBECDBFDF91CF9108950E94DC
:100390009E010895CF93DF93CDB7DEB728970FB6B0
:1003A000F894DEBF0FBECDBF0E949E0129833A8321
:1003B0004B835C838B819C8144E6489F9001499FDD
:1003C000300D112428573E41A3E2B5E60E946F028A
:1003D000FC0189819A81489F9001499F300D112429
:1003E000245F3A41A1E7BBE00E946F02BC01769511
:1003F00067957695679576956795CF010024880F68
:10040000991F001C880F991F001C892F902D28967A
:100410000FB6F894DEBF0FBECDBFDF91CF91089528
:10042000CF93DF93CDB7DEB728970FB6F894DEBF32
:100430000FBECDBF0E949E016D837E838F83988700
:100440008F81988544E6489F9001499F300D112483
:10045000A1E8B0E80E946F02FC018D819E81489F57
:100460009001499F300D11240E946F02BC01660F5C
:10047000672F661F770B7195CF01880F892F881F13
:10048000990B919528960FB6F894DEBF0FBECDBF9D
:10049000DF91CF9108950E94CA01262F372F28326D
:1004A0003105A0F02D333105A0F4282F392F283243
:1004B000310590F081E090E02D33310510F480E0BB
:1004C00090E0880F991F880F991F089581E090E0B0
:1004D000089582E090E0089583E090E00895A29F5F
:1004E000B001B39FC001A39F700D811D1124911D08
:1004F000B29F700D811D1124911D08958F929F92BE
:10050000AF92BF92CF92DF92EF92FF92CF93DF93A1
:10051000EC01688179818A819B8161157105810572
:10052000910521F464E279ED8BE597E02DE133EF5D
:1005300041E050E00E94460749015A019B01AC018D
:10054000A7EAB1E40E9465076B017C01ACEEB4EF51
:10055000A50194010E947307DC01CB018C0D9D1D48
:10056000AE1DBF1DB7FF03C00197A109B048888326
:100570009983AA83BB839F77DF91CF91FF90EF9000
:10058000DF90CF90BF90AF909F908F9008950E9482
:100590007E02089580E091E00E947E020895A0E02E
:1005A000B0E08093000190930101A0930201B09309
:1005B000030108950F931F93CF93DF93EC018B01F9
:1005C000892B51F4672B41F4E0E0F0E0CF01DF919B
:1005D000CF911F910F9108956EE070E081E090E05F
:1005E0000E945805FC01892B79F380E8838301156B
:1005F000110571F01387028781E88383809144029B
:1006000090914502892B21F4F0934502E093440236
:100610002097E1F2D187C0878381826083838091B4
:10062000460290914702892B89F6F0934702E093A6
:1006300046028091480290914902892B39F6F09345
:100640004902E0934802C2CFA0E0B0E0EAE2F3E062
:100650000C948807AE014B5F5F4FFA016191719175
:10066000AF0180914602909147020E946D03E2E043
:100670000C94A40760914602709147020E94B8064C
:1006800008950F931F93CF93DF93E0914602F0916B
:100690004702238100E010E021FD0EC00FEF1FEFA5
:1006A000C801DF91CF911F910F9108950995892B72
:1006B00011F00FEF1FEFCE01EC018991609146021E
:1006C00070914702DB011896ED91FC918111EECFFC
:1006D0008AE00995892B21F3E1CFABE0B0E0E3E7B5
:1006E000F3E00C947B076C017B018A01FC0117820B
:1006F0001682838181FFD9C19AE0592EF6012381A8
:10070000F70123FD859123FF81917F01811509F474
:100710001FC1853239F423FD959123FF91917F010B
:10072000953229F4B60190E00E94B806E7CF30E098
:10073000912C612C712CF0E27F1640F59B32D9F0A0
:1007400058F49032D1F09332F1F09E3299F576FC64
:10075000FFC0689476F806C09D3291F09033C1F4E2
:10076000689470F8F70123FD959123FF91917F0123
:100770009111E1CF29C0689471F8689472F8F2CFB2
:10078000689473F8EFCF689474F8ECCF77FC1CC0D2
:1007900080ED890F8A30C8F676FE05C0959C800DE5
:1007A0001124982EDFCF659C800D1124682E68944B
:1007B00075F8D8CF9C3619F4689477F8D3CF9C3469
:1007C00009F44BC0983671F2892F8F7D85548330A0
:1007D00008F445C0933609F466C0933709F469C03C
:1007E000933509F475C0943619F0993609F09FC015
:1007F000F80177FE95C061917191819191918F017E
:10080000272D2F76822E97FF09C0909580957095A1
:1008100061957F4F8F4F9F4F689487F82AE030E0B3
:10082000AE014F5F5F4F5A010E94E8068A19A82E59
:1008300086FEC4C0882D8E7FA91408F0BEC084FE39
:1008400011C182FC05C1F82DFE7E8F2EB92C882D9A
:100850008678811509F4BFC000C131E083CF31151E
:10086000F9F0085F1F4F8FE3898388248394912CCC
:10087000AE014F5F5F4F5A01E89477F873FC03C0F5
:1008800086149104B0F181149104D1F5611409F436
:1008900035CFB60180E290E00E94B8066A94F6CFA8
:1008A0000C5F1F4FE0CFF801808189830E5F1F4FDF
:1008B000DCCFF801A190B1908F01692D70E076FC3A
:1008C00002C06FEF7FEFC5010E94AD064C01D4CF8F
:1008D000F801A190B1908F01692D70E076FC02C003
:1008E0006FEF7FEFC5010E949B064C01689477F87B
:1008F000C5CFB60180E290E00E94B8066A94C0CFEE
:10090000F50177FC859177FE81915F01B60190E05A
:100910000E94B80661106A94F1E08F1A9108B3CF73
:1009200061917191072E000C880B990B68CF872C71
:10093000E89484F82AE030E0953739F1572D597F53
:10094000852E903799F058F49835A9F09F36D9F054
:10095000F601868197812B96EFE00C9497079837E4
:10096000B9F774FC05C020E130E00FC0689484F84A
:10097000689482F8F8CF74FE03C0872D8660882EB5
:1009800020E132E002C028E030E0F80187FE10C02C
:1009900061917191819191918F01FE0131965F0179
:1009A000AF010E94E8068A19A82EE89487F840CF84
:1009B0006191719180E090E0EFCF882EBA2C84FE97
:1009C00046CFFE01EA0DF11D8081803309F043C05E
:1009D000282D297E822E83FC0EC080FE4FC09A2CCB
:1009E000B61418F4960C9B18B62C862D8B196B1424
:1009F00008F480E0B80EB61408F042C06B1884FE0C
:100A000041C0B60180E390E00E94B80682FE09C0B2
:100A100088E590E081FC02C088E790E0B6010E9482
:100A2000B806A914D8F1AA94B12C4FEFA41AB40AAD
:100A3000CE0101964C01A80EB91EF50182915F010D
:100A4000B60190E00E94B8068A149B04B1F71ECF4D
:100A5000B92C882EB6CF82FC02C0B394BCCFB3941D
:100A6000B394B9CFB92C882EF2CEB60180E290E0D3
:100A70000E94B80673947614C0F3B7CF7B2CFBCFDB
:100A8000612CBDCF882D8678811559F280E281FCDA
:100A90008BE287FC8DE2B60190E0C1CFB60180E326
:100AA00090E00E94B8069A94BCCF8FEF9FEF53CF8F
:100AB0000F931F93CF93DF93869F8001879F100D25
:100AC000969F100D1124C8010E947405EC01009737
:100AD00029F0A80160E070E00E94A606CE01DF9137
:100AE000CF911F910F9108950F931F93CF93DF9391
:100AF0009C01029710F422E030E0E0914A02F0916C
:100B00004B0280E090E0A0E0B0E0309791F40097D5
:100B100009F448C0821B930B84309105D0F58A817B
:100B20009B816115710581F1FB0193838283FE0135
:100B300011C0408151810281138142175307D8F0BF
:100B40004217530799F4109761F012960C9312977D
:100B500013961C933296CF01DF91CF911F910F9185
:100B6000089500934A0210934B02F4CF009751F07E
:100B70004817590738F0AC01DB01CA01BD01DF019C
:100B8000F801C3CFEF01F9CF90934B0280934A0253
:100B9000CECFFE01E80FF91F21933193029799837D
:100BA0008883D9CF40914C0250914D024115510597
:100BB00041F4409106015091070150934D0240933A
:100BC0004C028091040190910501009741F48DB78A
:100BD0009EB76091080170910901861B970B481719
:100BE000590708F0B8CF841B950B8217930708F4B8
:100BF000B2CFB9016E5F7F4F8617970708F4ABCF6E
:100C0000640F751F70934D0260934C02FA0121939B
:100C10003193A1CFCF93DF939C010097E9F0FC01C2
:100C2000329713821282C0914A02D0914B02DE01A8
:100C300080E090E02097A1F480819181280F391FF6
:100C400080914C0290914D028217930709F068C081
:100C5000F0934D02E0934C02DF91CF910895DA01B9
:100C6000AE17BF0708F042C012964D915C911397E2
:100C7000CD014115510599F7DC011396FC93EE93D4
:100C800012974D915D919D01240F351FE217F307D7
:100C900081F4208131812E5F3F4F240F351FDC010D
:100CA00011963C932E932281338113963C932E937D
:100CB0001297E0E0F0E08A819B810097B1F5DE01B8
:100CC0008D919D918A0F9B1F20914C0230914D0276
:100CD0002817390709F6309759F510924B021092F0
:100CE0004A02D0934D02C0934C02B6CFB383A28385
:100CF00040815181240F351FA217B30771F44E5F55
:100D00005F4F2D913C911197240F351F3183208324
:100D100012962D913C9133832283009709F0ACCF3A
:100D2000F0934B02E0934A0297CFFE01EC01C3CF50
:100D300013821282D6CFFC010590615070400110E1
:100D4000D8F7809590958E0F9F1F0895DC0101C004
:100D50006D9341505040E0F70895FC0161507040A0
:100D600001900110D8F7809590958E0F9F1F0895E0
:100D70000F931F93CF93DF93182F092FEB018B81D4
:100D800081FD09C01FEF0FEF812F902FDF91CF91D1
:100D90001F910F91089582FF14C02E813F818C8195
:100DA0009D81281739073CF4E881F981CF0101962C
:100DB0009983888310838E819F8101969F838E8380
:100DC000E3CFE885F985812F0995892BA1F3DACF47
:100DD000FA01AA27283051F1203181F1E8946F936C
:100DE0006E7F6E5F7F4F8F4F9F4FAF4FB1E03ED012
:100DF000B4E03CD0670F781F891F9A1FA11D680FB0
:100E0000791F8A1F911DA11D6A0F711D811D911DE2
:100E1000A11D20D009F468943F912AE0269F112457
:100E20003019305D3193DEF6CF010895462F4770BB
:100E3000405D4193B3E00FD0C9F7F6CF462F4F7016
:100E4000405D4A3318F0495D31FD4052419302D074
:100E5000A9F7EACFB4E0A69597958795779567951A
:100E6000BA95C9F700976105710508959B01AC011A
:100E70000A2E06945795479537952795BA95C9F741
:100E8000620F731F841F951FA01D0895052E97FBE9
:100E90001EF400940E945D0757FD07D00E94AF0723
:100EA00007FC03D04EF40C945D07509540953095A7
:100EB00021953F4F4F4F5F4F0895909580957095C6
:100EC00061957F4F8F4F9F4F08950E946F02A59F9E
:100ED000900DB49F900DA49F800D911D1124089535
:100EE000B7FF0C9465070E946507821B930B08955A
:100EF0002F923F924F925F926F927F928F929F922A
:100F0000AF92BF92CF92DF92EF92FF920F931F9317
:100F1000CF93DF93CDB7DEB7CA1BDB0B0FB6F894C8
:100F2000DEBF0FBECDBF09942A88398848885F8408
:100F30006E847D848C849B84AA84B984C884DF8079
:100F4000EE80FD800C811B81AA81B981CE0FD11D5D
:100F50000FB6F894DEBF0FBECDBFED010895A1E23C
:100F60001A2EAA1BBB1BFD010DC0AA1FBB1FEE1F23
:100F7000FF1FA217B307E407F50720F0A21BB30B6E
:100F8000E40BF50B661F771F881F991F1A9469F7EA
:100F900060957095809590959B01AC01BD01CF0146
:060FA0000895F894FFCF54
:100FA6000100000000004E02200053746172746953
:100FB6006E67205352414D20746573742E2E2E0099
:100FC6005772697465207068617365206572726F07
:100FD600723A206578745F72616D5B2534645D20BA
:100FE6003D2025303258202873686F756C64206266
:100FF600652025303258290A005265747269657673
:10100600616C207068617365206572726F723A2038
:101016006578745F72616D5B2534645D203D2025C3
:10102600303258202873686F756C642062652025FD
:10103600303258290A005352414D2074657374208A
:10104600636F6D706C657465642077697468200AD7
:10105600253464206572726F727320696E20777210
:1010660069746520706861736520616E64200A2565
:101076003464206572726F727320696E20726574B3
:1010860072696576616C2070686173650A0A00484A
:10109600656C6C6F20576F726C6421006A6F7920E3
:1010A600782069733A2025750A006A6F79207920BD
:1010B60069733A2025750A00706164207820697387
:1010C6003A2025750A0070616420792069733A20F8
:1010D60025750A006A6F79206469722069733A205F
:0410E60025640A0073
:00000001FF
