:100000000C9460030C947D030C947D030C947D038D
:100010000C947D030C947D030C947D030C947D0360
:100020000C947D030C947D030C947D030C947D0350
:100030000C947D030C947D030C947D030C947D0340
:100040000C947D030C947D030C947D030C947D0330
:100050000C947D030C947D030C947D030C947D0320
:100060000C947D030C947D030C947D030C947D0310
:1000700000000000005C00000C000C007C287C28C4
:1000800058DC68002410480028542840000C000068
:10009000007884008478000054385400107C1000EC
:1000A00080400000101010000040000060100C00A4
:1000B00038543800487C40004864580044542C00B0
:1000C0001C107C005C5424003854240064140C0080
:1000D00068542C0048543800004800008048000054
:1000E0001028440028282800442810000454080040
:1000F00038445C00781478007C5428003844280088
:100100007C4438007C5444007C140400384474005F
:100110007C107C00447C440020403C007C106C003F
:100120007C4040007C187C0078103C00384438004B
:100130007C1408003844B8007C146800485424003B
:10014000047C04007C407C003C603C007C307C00F3
:100150006C106C000C700C0064544C00007C44006B
:100160000C106000447C00000804080080808000BF
:1001700000040800304878007C48300030484800CF
:1001800030487C00306850001078140090A8780047
:100190007C08700050744000808074007C106800FF
:1001A000447C4000781078007808700030483000B7
:1001B000F82810003048F80078100800505828003F
:1001C000083C4800384078003840380078207800F3
:1001D0004830480098A0780048685800107884009B
:1001E000007C00008478100008040804000000006F
:1001F0000000005F00000007000700147F147F1458
:10020000242A7F2A1223130864623649552250009B
:1002100005030000001C2241000041221C00082AA6
:100220001C2A0808083E080800503000000808088A
:100230000808006060000020100804023E51494593
:100240003E00427F400042615149462141454B31C9
:100250001814127F1027454545393C4A4949300159
:10026000710905033649494936064949291E0036B0
:100270003600000056360000000814224114141401
:10028000141441221408000201510906324979412F
:100290003E7E1111117E7F494949363E414141223E
:1002A0007F4141221C7F494949417F090901013EA3
:1002B000414151327F0808087F00417F41002040C2
:1002C000413F017F081422417F404040407F0204AB
:1002D000027F7F0408107F3E4141413E7F090909AA
:1002E000063E4151215E7F09192946464949493157
:1002F00001017F01013F4040403F1F2040201F7F00
:100300002018207F631408146303047804036151E8
:1003100049454300007F4141020408102041417FCC
:100320000000040201020440404040400001020479
:100330000020545454787F4844443838444444207E
:10034000384444487F3854545418087E0901020840
:100350001454543C7F0804047800447D400020403D
:10036000443D00007F10284400417F40007C041879
:1003700004787C0804047838444444387C14141409
:1003800008081414187C7C080404084854545420A9
:10039000043F4440203C4040207C1C2040201C3C2A
:1003A0004030403C44281028440C5050503C446499
:1003B000544C44000836410000007F0000004136E4
:1003C000080002010302010000000000000000001C
:1003D000065F5F0600000000070700070700001423
:1003E0007F7F147F7F1400242E6B6B3A120000462F
:1003F0006630180C666200307A4F5D377A48000428
:1004000007030000000000001C3E634100000000E4
:1004100041633E1C000000082A3E1C1C3E2A0808BE
:10042000083E3E0808000000A0E060000000000850
:100430000808080808000000006060000000006074
:1004400030180C060301003E7F594D7F3E000042EC
:10045000427F7F40400000627359496F660000226E
:100460006349497F360000181C16137F7F10002750
:100470006745457D3900003C7E4B497930000003DB
:100480006371190F070000367F49497F3600000667
:100490004F49693F1E000000006C6C000000000026
:1004A000A0EC6C00000000081C3663410000001442
:1004B00014141414140000004163361C08000002D8
:1004C0000351590F0600003E7F415D5D1F1E007CF9
:1004D0007E13137E7C0000417F7F49497F36001CDC
:1004E0003E634141632200417F7F41637F1C0041A5
:1004F0007F7F495D416300417F7F491D0103001CEF
:100500003E6341517372007F7F08087F7F000000C7
:10051000417F7F41000000307040417F3F0100413A
:100520007F7F081C776300417F7F41406070007FC0
:100530007F060C067F7F007F7F060C187F7F001CE4
:100540003E6341633E1C00417F7F49090F06001E48
:100550003F21717F5E0000417F7F19396F46002681
:10056000674D597B32000003417F7F410300007FCC
:100570007F40407F7F00001F3F60603F1F00007F83
:100580007F3018307F7F0063771C081C776300077B
:100590004F78784F0700006773594D47637100002B
:1005A0007F7F41410000000103060C18306000000D
:1005B00041417F7F000000080C0603060C08008004
:1005C000808080808080800000030704000000207D
:1005D0007454543C784000413F7F44447C38003898
:1005E0007C44446C280000307848493F7F40003804
:1005F0007C54545C180000487E7F49030200009838
:10060000BCA4A4F87C0400417F7F08047C7800002F
:10061000447D7D4000000040C484FD7D0000004119
:100620007F7F10386C440000417F7F400000007CD9
:100630007C0C180C7C78007C7C04047C78000038EE
:100640007C44447C38000084FCF8A4243C18001846
:100650003C24A4F8FC8400447C78441C1800004826
:100660005C54547424000000043E7F442400003C89
:100670007C40403C7C40001C3C60603C1C00003CDA
:100680007C6030607C3C00446C3810386C44009CCA
:10069000BCA0A0FC7C00004C64745C4C64000008AE
:1006A000083E7741410000000000777700000041DC
:1006B00041773E0808000002030103020301000025
:1006C00011241FBECFEFD4E0DEBFCDBF12E0A0E00B
:1006D000B1E0ECE4FBE102C005900D92AE3AB10747
:1006E000D9F722E0AEEAB2E001C01D92A33CB20706
:1006F000E1F70E940F040C94A40D0C940000CF921B
:10070000DF92EF92FF920F931F93CF93DF9389E5D0
:1007100091E00E9405090E948E08C82ED92E0E94E1
:10072000930800E010E0C0E0D0E00F2EFFE6EF2ECF
:10073000F1E0FF2EF02D06C00F5F1F4F011598E06E
:100740001907F9F00E948E08282F392FF801F85E5A
:1007500080834081481781F333273F932F931F9263
:100760004F931F930F93FF92EF920E94E8082196F8
:100770008DB79EB708960FB6F8949EBF0FBE8DBF7B
:10078000DBCF8C2D9D2D0E949308C12CD12C00E035
:1007900010E00F2EF8EAEF2EF1E0FF2EF02D07C04B
:1007A0009FEFC91AD90AC11488E0D806F9F00E944F
:1007B0008E08282F392FF601F85E8081821781F389
:1007C00033273F932F931F928F93DF92CF92FF9205
:1007D000EF920E94E8080F5F1F4F8DB79EB70896F3
:1007E0000FB6F8949EBF0FBE8DBFDACF1F930F9345
:1007F000DF93CF9385EE91E09F938F930E94E8085B
:100800000F900F900F900F900F900F90DF91CF915E
:100810001F910F91FF90EF90DF90CF9008958FE19F
:1008200090E00E9441040E944A040E946C040E94CD
:10083000160860E080E00E94110665E374E086E23D
:1008400094E00E949E0880E090E00895CF93C82F26
:100850008A3039F05D9BFECFCCB980E090E0CF913B
:1008600008958DE00E942604F5CF5F9BFECF8CB1EA
:1008700090E0089565E374E086E294E00E949E08AB
:10088000089590BD89B988E18AB98EE880BD0E943B
:100890003A04089585B7806885BF80B7806280BFBD
:1008A00008958FEF84BB15BA88E180BF10BE85E53F
:1008B0008093011808952FEF24BB15BA28E120BFBB
:1008C000FC01608310BE08958D9A80E48FBD89E09D
:1008D0008EBD1BBC1ABC089585B7806885BF80B7E4
:1008E000806280BF0E946404B998C19A0895CF9332
:1008F000DF93C82FD92F2097E9F080E00E947A0576
:1009000084E00E94920581E48A95F1F700C00E947C
:100910009605888383E08A95F1F700000E9496058A
:10092000898383E08A95F1F700000E9496058A8307
:100930000E948605DF91CF910895CF92DF92EF92CA
:100940000F931F93CF93DF9300D00F92CDB7DEB7F5
:10095000082F192F80E00115110519F1D8011D92FA
:100960001D921C92CE0101960E947704898190917C
:10097000B20289130AC09A812091B302921305C072
:100980003B812091B4023217B9F089819A81AB8101
:100990008093B2029093B302A093B4021092B1027A
:1009A00080E00F900F900F90DF91CF911F910F91EA
:1009B000EF90DF90CF9008952091B102233038F46A
:1009C0002F5F2093B102233010F480E0EACF209112
:1009D000AE02821308C04091AF02941304C040914C
:1009E000B002341711F120952823F8012083EEEA94
:1009F000F2E0818180959823D80111969C931197FC
:100A000082818095832312968C93C980DA80EB8053
:100A1000C092AE02D092AF02E092B002292B282BF6
:100A200081E02111BECF80E0BCCF80E0BACFE0E012
:100A3000F0E1108281E28A95F1F760817081808116
:100A4000908108950E94170508950E941705262F8A
:100A5000872F8E54990BAC0134E6349FC001359F2B
:100A6000900D112462EA70E00E941A08462F822F2E
:100A70008554990BBC01369FC001379F900D1124FE
:100A800063EB70E00E941A08862F942F08950E944D
:100A90001705482F24E6299FC0011124EFEFF0E04D
:100AA000BF010E941A08362F249FC0011124BF01E4
:100AB0000E941A08862F932F08950E9425058832D8
:100AC00080F08D3388F4983290F021E030E09D334F
:100AD00010F420E030E0C901880F991F880F991F9A
:100AE000089581E090E0089582E090E0089583E029
:100AF00090E0089598B3916198BB811102C0C498A9
:100B00000895813009F00895C098089588B38161EF
:100B100088BB089587B3816B87BB81E58DB90E943F
:100B2000860508958FB9779BFECF08951FB8779BF0
:100B3000FECF8FB108950F931F93CF93DF93082FAC
:100B4000192FC62FD72F242F352F21153105C1F08E
:100B5000FE01D8012C0F3D1F90E005C03196119683
:100B6000E217F30769F0892F0115110509F08C913F
:100B70008FB9779BFECF209789F38FB18083EECF1B
:100B8000DF91CF911F910F910895CF93DF930F9233
:100B9000CDB7DEB7898381E00E947A05C29841E033
:100BA00050E060E070E0CE0101960E949B050E943B
:100BB00086050F90DF91CF9108950F931F93CF93E8
:100BC000DF93D82FC92F062F172F81E00E947A05B7
:100BD000C29A402F512F60E070E08D2F9C2F0E9411
:100BE0009B050E948605DF91CF911F910F9108957B
:100BF00087708093B60280550E94C5050895CF93F3
:100C0000C82F8F778093B5028C2F8F700E94C505F7
:100C10008C2F82958F708770805F0E94C505CF9161
:100C20000895CF93C62F0E94F8058C2F0E94FF05D0
:100C3000CF9108959091B602890F0E94F80508950A
:100C40009091B502890F0E94FF0508958091B60228
:100C500060E08F5F0E9411060895CF93DF9300D06C
:100C600000D0CDB7DEB78A3069F18D3011F18052F6
:100C70008F35F8F4E82FF0E0EE0FFF1FEE0FFF1FA7
:100C8000E059FF4FDE0111969E012B5F3F4F84918B
:100C90008D933196A217B307D1F764E070E0CE01CF
:100CA00001960E94DD058091B5028C3770F00E949C
:100CB000260680E090E00F900F900F900F90DF914C
:100CC000CF9108950E942606F4CF84E00E9420066A
:100CD000F0CF0F931F93CF93DF93CDB7DEB7C058FC
:100CE000D1090FB6F894DEBF0FBECDBF883060F0DB
:100CF000C058DF4F0FB6F894DEBF0FBECDBFDF91F7
:100D0000CF911F910F9108958E010F5F1F4F90E8B3
:100D1000F80111929A95E9F760E00E94110660E8E7
:100D200070E0C8010E94DD05E3CFCF93C0E08C2FB7
:100D30000E946906CF5FC830D1F760E080E00E9472
:100D40001106CF9108950E948A05BA9A8EEA0E94F0
:100D5000C50585ED0E94C50580E70E94C50588EAA6
:100D60000E94C5058FE30E94C50583ED0E94C5055D
:100D700080E00E94C50580EA0E94C50580EC0E94C3
:100D8000C5058AED0E94C50582E00E94C50581E87F
:100D90000E94C5058FE70E94C50589ED0E94C50523
:100DA00082E20E94C5058BED0E94C50584E30E9486
:100DB000C50580E20E94C50582E00E94C50584EA5F
:100DC0000E94C50586EA0E94C5050E94950660E05E
:100DD00080E00E9411068FEA0E94C50580E091E044
:100DE0009093BC028093BB02089560E080E00E9473
:100DF000110608950E9495060E94F5060895CF9366
:100E0000DF93C82FD92F8881811541F0219660E0AA
:100E100070E00E942D0689918111F9CFDF91CF9169
:100E200008958EE392E00E94050908958BE492E014
:100E30000E94050908958CE592E00E940509089535
:100E40008BE692E00E94050908950F931F93CF93BC
:100E50000E94F506E0910E01F0910F01828181154B
:100E6000B1F000E010E0C0E00190F081E02DE00F73
:100E7000F11F808191810E940509CF5FE0910E01F1
:100E8000F0910F010A5F1F4F8281C81768F3CF915D
:100E90001F910F910895CF93E0910E01F0910F01F2
:100EA00082818115D9F0C0E00CC08AE290E00E94F6
:100EB000FE08CF5FE0910E01F0910F018281C8170B
:100EC00068F460E58C2F0E9411068091B8028C179F
:100ED00061F380E290E00E94FE08EBCFCF9108958D
:100EE000E0910E01F0910F0183819481009761F0F0
:100EF00090930F0180930E011092B8020E94950604
:100F00000E9425070E944B070895CF93DF9300D0DE
:100F10000F92CDB7DEB70E9495060E9425070E946A
:100F20004B0711E06AC08091B702811170C0233075
:100F3000310599F48091B80281110DC0E0910E0144
:100F4000F0910F01828181508093B8021093B70213
:100F50000E944B075CC08150F7CF2430310599F4D3
:100F60008091B80290E00196E0910E01F0910F019E
:100F7000628170E00E941A088093B8021093B70251
:100F80000E944B0744C02130310509F040C00E9447
:100F900070071093B7023BC0E0910E01F0910F0172
:100FA0002091B80230E0C901880F991F820F931F6A
:100FB000880F991F0190F081E02DE80FF91F8281C1
:100FC0009381009769F090930F0180930E01109226
:100FD000B8020E9495060E9425070E944B0720C078
:100FE0000480F581E02D3097D9F0099519C083EC84
:100FF00099E00197F1F700C000000E945D05282FDD
:10100000392F2115310509F08ECF1092B702CE018C
:1010100001960E949D04811551F38B8180FDBCCF08
:101020008B8181FFE4CF0E947007E1CF0E94A3066D
:101030000E94850797FB072E16F4009407D077FDD2
:1010400009D00E942E0807FC05D03EF490958195AA
:101050009F4F0895709561957F4F0895AA1BBB1B04
:1010600051E107C0AA1FBB1FA617B70710F0A61BA8
:10107000B70B881F991F5A95A9F780959095BC01C9
:10108000CD0108958F929F92AF92BF92CF92DF923F
:10109000EF92FF92CF93DF93EC01688179818A818F
:1010A0009B81611571058105910521F464E279ED5B
:1010B0008BE597E02DE133EF41E050E00E940A0D0F
:1010C00049015A019B01AC01A7EAB1E40E94290D34
:1010D0006B017C01ACEEB4EFA50194010E94370DC9
:1010E000DC01CB018C0D9D1DAE1DBF1DB7FF03C0E4
:1010F0000197A109B04888839983AA83BB839F770E
:10110000DF91CF91FF90EF90DF90CF90BF90AF90A5
:101110009F908F9008950E944208089580E191E089
:101120000E9442080895A0E0B0E0809310019093DF
:101130001101A0931201B093130108950F931F930F
:10114000CF93DF93EC018B01892B51F4672B41F492
:10115000E0E0F0E0CF01DF91CF911F910F91089572
:101160006EE070E081E090E00E941C0BFC01892B96
:1011700079F380E883830115110571F013870287E5
:1011800081E883838091B9029091BA02892B21F47E
:10119000F093BA02E093B9022097E1F2D187C087B9
:1011A0008381826083838091BB029091BC02892BF2
:1011B00089F6F093BC02E093BB028091BD0290914E
:1011C000BE02892B39F6F093BE02E093BD02C2CF76
:1011D000A0E0B0E0EEEEF8E00C944C0DAE014B5FF9
:1011E0005F4FFA0161917191AF018091BB029091C3
:1011F000BC020E943109E2E00C94680D6091BB02D0
:101200007091BC020E947C0C08950F931F93CF93A2
:10121000DF93E091BB02F091BC02238100E010E07B
:1012200021FD0EC00FEF1FEFC801DF91CF911F917D
:101230000F9108950995892B11F00FEF1FEFCE0143
:10124000EC0189916091BB027091BC02DB011896A0
:10125000ED91FC918111EECF8AE00995892B21F364
:10126000E1CFABE0B0E0E7E3F9E00C943F0D6C01B7
:101270007B018A01FC0117821682838181FFD9C11B
:101280009AE0592EF6012381F70123FD859123FF72
:1012900081917F01811509F41FC1853239F423FD45
:1012A000959123FF91917F01953229F4B60190E049
:1012B0000E947C0CE7CF30E0912C612C712CF0E285
:1012C0007F1640F59B32D9F058F49032D1F093322A
:1012D000F1F09E3299F576FCFFC0689476F806C06E
:1012E0009D3291F09033C1F4689470F8F70123FDBA
:1012F000959123FF91917F019111E1CF29C06894CD
:1013000071F8689472F8F2CF689473F8EFCF68942C
:1013100074F8ECCF77FC1CC080ED890F8A30C8F6DA
:1013200076FE05C0959C800D1124982EDFCF659C1C
:10133000800D1124682E689475F8D8CF9C3619F466
:10134000689477F8D3CF9C3409F44BC0983671F287
:10135000892F8F7D8554833008F445C0933609F476
:1013600066C0933709F469C0933509F475C09436A3
:1013700019F0993609F09FC0F80177FE95C0619188
:101380007191819191918F01272D2F76822E97FF58
:1013900009C090958095709561957F4F8F4F9F4FB5
:1013A000689487F82AE030E0AE014F5F5F4F5A0142
:1013B0000E94AC0C8A19A82E86FEC4C0882D8E7F90
:1013C000A91408F0BEC084FE11C182FC05C1F82D2D
:1013D000FE7E8F2EB92C882D8678811509F4BFC02A
:1013E00000C131E083CF3115F9F0085F1F4F8FE363
:1013F000898388248394912CAE014F5F5F4F5A01FB
:10140000E89477F873FC03C086149104B0F181145A
:101410009104D1F5611409F435CFB60180E290E072
:101420000E947C0C6A94F6CF0C5F1F4FE0CFF8014E
:10143000808189830E5F1F4FDCCFF801A190B190AE
:101440008F01692D70E076FC02C06FEF7FEFC50160
:101450000E94710C4C01D4CFF801A190B1908F0182
:10146000692D70E076FC02C06FEF7FEFC5010E942E
:101470005F0C4C01689477F8C5CFB60180E290E02C
:101480000E947C0C6A94C0CFF50177FC859177FEB1
:1014900081915F01B60190E00E947C0C61106A941A
:1014A000F1E08F1A9108B3CF61917191072E000C72
:1014B000880B990B68CF872CE89484F82AE030E0F9
:1014C000953739F1572D597F852E903799F058F47B
:1014D0009835A9F09F36D9F0F601868197812B9631
:1014E000EFE00C945B0D9837B9F774FC05C020E170
:1014F00030E00FC0689484F8689482F8F8CF74FEE6
:1015000003C0872D8660882E20E132E002C028E0EB
:1015100030E0F80187FE10C0619171918191919145
:101520008F01FE0131965F01AF010E94AC0C8A1958
:10153000A82EE89487F840CF6191719180E090E007
:10154000EFCF882EBA2C84FE46CFFE01EA0DF11DA6
:101550008081803309F043C0282D297E822E83FCB0
:101560000EC080FE4FC09A2CB61418F4960C9B182F
:10157000B62C862D8B196B1408F480E0B80EB614C7
:1015800008F042C06B1884FE41C0B60180E390E0D1
:101590000E947C0C82FE09C088E590E081FC02C0BC
:1015A00088E790E0B6010E947C0CA914D8F1AA94B7
:1015B000B12C4FEFA41AB40ACE0101964C01A80E2B
:1015C000B91EF50182915F01B60190E00E947C0C8A
:1015D0008A149B04B1F71ECFB92C882EB6CF82FC9B
:1015E00002C0B394BCCFB394B394B9CFB92C882EB6
:1015F000F2CEB60180E290E00E947C0C73947614E7
:10160000C0F3B7CF7B2CFBCF612CBDCF882D867864
:10161000811559F280E281FC8BE287FC8DE2B601F4
:1016200090E0C1CFB60180E390E00E947C0C9A94D8
:10163000BCCF8FEF9FEF53CF0F931F93CF93DF93C9
:10164000869F8001879F100D969F100D1124C80161
:101650000E94380BEC01009729F0A80160E070E0CF
:101660000E946A0CCE01DF91CF911F910F910895D6
:101670000F931F93CF93DF939C01029710F422E006
:1016800030E0E091BF02F091C00280E090E0A0E085
:10169000B0E0309791F4009709F448C0821B930B97
:1016A00084309105D0F58A819B816115710581F1A6
:1016B000FB0193838283FE0111C04081518102812D
:1016C000138142175307D8F04217530799F4109724
:1016D00061F012960C93129713961C933296CF01D9
:1016E000DF91CF911F910F9108950093BF02109346
:1016F000C002F4CF009751F04817590738F0AC01F9
:10170000DB01CA01BD01DF01F801C3CFEF01F9CF51
:101710009093C0028093BF02CECFFE01E80FF91F65
:1017200021933193029799838883D9CF4091C10245
:101730005091C2024115510541F44091160150915A
:1017400017015093C2024093C102809114019091FD
:101750001501009741F48DB79EB760911801709103
:101760001901861B970B4817590708F0B8CF841B3F
:10177000950B8217930708F4B2CFB9016E5F7F4FC4
:101780008617970708F4ABCF640F751F7093C202DA
:101790006093C102FA0121933193A1CFCF93DF93DC
:1017A0009C010097E9F0FC01329713821282C091EC
:1017B000BF02D091C002DE0180E090E02097A1F44A
:1017C00080819181280F391F8091C1029091C202BE
:1017D0008217930709F068C0F093C202E093C10238
:1017E000DF91CF910895DA01AE17BF0708F042C02C
:1017F00012964D915C911397CD014115510599F7C2
:10180000DC011396FC93EE9312974D915D919D012F
:10181000240F351FE217F30781F4208131812E5FF9
:101820003F4F240F351FDC0111963C932E932281EC
:10183000338113963C932E931297E0E0F0E08A8177
:101840009B810097B1F5DE018D919D918A0F9B1FC1
:101850002091C1023091C2022817390709F630974A
:1018600059F51092C0021092BF02D093C202C093E9
:10187000C102B6CFB383A28340815181240F351FAB
:10188000A217B30771F44E5F5F4F2D913C911197F2
:10189000240F351F3183208312962D913C91338381
:1018A0002283009709F0ACCFF093C002E093BF020F
:1018B00097CFFE01EC01C3CF13821282D6CFFC0179
:1018C0000590615070400110D8F7809590958E0F6B
:1018D0009F1F0895DC0101C06D9341505040E0F717
:1018E0000895FC016150704001900110D8F7809577
:1018F00090958E0F9F1F08950F931F93CF93DF93A3
:10190000182F092FEB018B8181FD09C01FEF0FEF0D
:10191000812F902FDF91CF911F910F91089582FF1A
:1019200014C02E813F818C819D81281739073CF49A
:10193000E881F981CF0101969983888310838E8194
:101940009F8101969F838E83E3CFE885F985812F60
:101950000995892BA1F3DACFFA01AA27283051F192
:10196000203181F1E8946F936E7F6E5F7F4F8F4FD0
:101970009F4FAF4FB1E03ED0B4E03CD0670F781F2F
:10198000891F9A1FA11D680F791F8A1F911DA11D14
:101990006A0F711D811D911DA11D20D009F468944D
:1019A0003F912AE0269F11243019305D3193DEF6F5
:1019B000CF010895462F4770405D4193B3E00FD0AB
:1019C000C9F7F6CF462F4F70405D4A3318F0495D96
:1019D00031FD4052419302D0A9F7EACFB4E0A69579
:1019E0009795879577956795BA95C9F7009761059B
:1019F000710508959B01AC010A2E069457954795F1
:101A000037952795BA95C9F7620F731F841F951FE5
:101A1000A01D0895052E97FB1EF400940E94210D31
:101A200057FD07D00E94730D07FC03D04EF40C94B1
:101A3000210D50954095309521953F4F4F4F5F4F69
:101A4000089590958095709561957F4F8F4F9F4F2A
:101A500008950E94950DA59F900DB49F900DA49F91
:101A6000800D911D11240895B7FF0C94290D0E943B
:101A7000290D821B930B08952F923F924F925F92F4
:101A80006F927F928F929F92AF92BF92CF92DF928E
:101A9000EF92FF920F931F93CF93DF93CDB7DEB7F3
:101AA000CA1BDB0B0FB6F894DEBF0FBECDBF099487
:101AB0002A88398848885F846E847D848C849B84DE
:101AC000AA84B984C884DF80EE80FD800C811B81EC
:101AD000AA81B981CE0FD11D0FB6F894DEBF0FBE1B
:101AE000CDBFED010895A1E21A2EAA1BBB1BFD017B
:101AF0000DC0AA1FBB1FEE1FFF1FA217B307E407ED
:101B0000F50720F0A21BB30BE40BF50B661F771F44
:101B1000881F991F1A9469F7609570958095909524
:101B20009B01AC01BD01CF010895A29FB001B39FFD
:101B3000C001A39F700D811D1124911DB29F700DD6
:0C1B4000811D1124911D0895F894FFCF21
:101B4C0000000002000000002D06000000005401FF
:101B5C00010000000000C302200079020000110700
:101B6C00820200007007870200001B078D02000034
:101B7C001607820200007007950200002007A002E1
:101B8C004F010000A9024A0100001A01025401266B
:101B9C000103540138010300005374617274696EBF
:101BAC0067205352414D20746573742E2E2E0057AE
:101BBC0072697465207068617365206572726F72EA
:101BCC003A206578745F72616D5B2534645D203DED
:101BDC002025303258202873686F756C642062653C
:101BEC002025303258290A00526574726965766175
:101BFC006C207068617365206572726F723A206533
:101C0C0078745F72616D5B2534645D203D202530F6
:101C1C003258202873686F756C64206265202530FB
:101C2C003258290A005352414D2074657374206355
:101C3C006F6D706C657465642077697468200A2513
:101C4C003464206572726F727320696E20777269CA
:101C5C00746520706861736520616E64200A253498
:101C6C0064206572726F727320696E207265747273
:101C7C00696576616C2070686173650A0A00536847
:101C8C006F77696E672068656C70004368616E677A
:101C9C00696E6720646973706C6179004368616E6A
:101CAC0067696E6720736F756E640053746172742C
:101CBC00696E672067616D6500436F6E74726F6C3F
:101CCC0073004261636B00536F756E6400446973FB
:101CDC00706C61790053746172742067616D65007A
:0E1CEC0053657474696E67730048656C700010
:00000001FF
